{
  "contractName": "UniswapExitPosition",
  "abi": [
    {
      "inputs": [],
      "stateMutability": "nonpayable",
      "type": "constructor"
    },
    {
      "inputs": [],
      "name": "LINK",
      "outputs": [
        {
          "internalType": "address",
          "name": "",
          "type": "address"
        }
      ],
      "stateMutability": "view",
      "type": "function",
      "constant": true
    },
    {
      "inputs": [],
      "name": "USDC",
      "outputs": [
        {
          "internalType": "address",
          "name": "",
          "type": "address"
        }
      ],
      "stateMutability": "view",
      "type": "function",
      "constant": true
    },
    {
      "inputs": [
        {
          "internalType": "uint256",
          "name": "",
          "type": "uint256"
        }
      ],
      "name": "deposits",
      "outputs": [
        {
          "internalType": "address",
          "name": "owner",
          "type": "address"
        },
        {
          "internalType": "uint128",
          "name": "liquidity",
          "type": "uint128"
        },
        {
          "internalType": "address",
          "name": "token0",
          "type": "address"
        },
        {
          "internalType": "address",
          "name": "token1",
          "type": "address"
        }
      ],
      "stateMutability": "view",
      "type": "function",
      "constant": true
    },
    {
      "inputs": [],
      "name": "nonfungiblePositionAddress",
      "outputs": [
        {
          "internalType": "address",
          "name": "",
          "type": "address"
        }
      ],
      "stateMutability": "view",
      "type": "function",
      "constant": true
    },
    {
      "inputs": [],
      "name": "nonfungiblePositionManager",
      "outputs": [
        {
          "internalType": "contract INonfungiblePositionManager",
          "name": "",
          "type": "address"
        }
      ],
      "stateMutability": "view",
      "type": "function",
      "constant": true
    },
    {
      "inputs": [],
      "name": "poolFee",
      "outputs": [
        {
          "internalType": "uint24",
          "name": "",
          "type": "uint24"
        }
      ],
      "stateMutability": "view",
      "type": "function",
      "constant": true
    },
    {
      "inputs": [
        {
          "internalType": "address",
          "name": "operator",
          "type": "address"
        },
        {
          "internalType": "address",
          "name": "",
          "type": "address"
        },
        {
          "internalType": "uint256",
          "name": "tokenId",
          "type": "uint256"
        },
        {
          "internalType": "bytes",
          "name": "",
          "type": "bytes"
        }
      ],
      "name": "onERC721Received",
      "outputs": [
        {
          "internalType": "bytes4",
          "name": "",
          "type": "bytes4"
        }
      ],
      "stateMutability": "nonpayable",
      "type": "function"
    },
    {
      "inputs": [],
      "name": "mintNewPosition",
      "outputs": [
        {
          "internalType": "uint256",
          "name": "tokenId",
          "type": "uint256"
        },
        {
          "internalType": "uint128",
          "name": "liquidity",
          "type": "uint128"
        },
        {
          "internalType": "uint256",
          "name": "amount0",
          "type": "uint256"
        },
        {
          "internalType": "uint256",
          "name": "amount1",
          "type": "uint256"
        }
      ],
      "stateMutability": "nonpayable",
      "type": "function"
    },
    {
      "inputs": [
        {
          "internalType": "uint256",
          "name": "tokenId",
          "type": "uint256"
        }
      ],
      "name": "exitPosition",
      "outputs": [
        {
          "internalType": "uint256",
          "name": "amount0",
          "type": "uint256"
        },
        {
          "internalType": "uint256",
          "name": "amount1",
          "type": "uint256"
        }
      ],
      "stateMutability": "nonpayable",
      "type": "function"
    }
  ],
  "bytecode": "0x60a0604052600080546001600160a01b03191673c36442b4a4522e871399cd717abdd847ab11fe8817905534801561003657600080fd5b506000546001600160601b031960609190911b1660805260805160601c6110a161008d600039806102155280610254528061030752806103cc5280610438528061052b5280610624528061064d52506110a16000f3fe608060405234801561001057600080fd5b50600436106100935760003560e01c8063306d9c6111610066578063306d9c61146100f357806378dc90591461010b57806389a302711461012c578063b02c43d014610134578063b44a27221461015757610093565b8063089fe6aa146100985780630d2f175d146100b6578063150b7a02146100cb5780631b6b6d23146100eb575b600080fd5b6100a061015f565b6040516100ad9190611008565b60405180910390f35b6100be610164565b6040516100ad9190610e93565b6100de6100d9366004610c87565b610173565b6040516100ad9190610edb565b6100be610191565b6100fb6101a9565b6040516100ad9493929190611021565b61011e610119366004610d21565b61048b565b6040516100ad929190611045565b6100be6105c9565b610147610142366004610d21565b6105e1565b6040516100ad9493929190610ea7565b6100be610622565b606481565b6000546001600160a01b031681565b600061017f8685610646565b50630a85bd0160e11b95945050505050565b73326c977e6efc84e512bb9c30f76e30c160ed06fb81565b6000808080670de0b6b3a7640000620f42406101db73326c977e6efc84e512bb9c30f76e30c160ed06fb33308561080d565b6101fb7307865c6e87b9f70255377e024ace6630c1eaa37f33308461080d565b61023a73326c977e6efc84e512bb9c30f76e30c160ed06fb7f000000000000000000000000000000000000000000000000000000000000000084610965565b6102797307865c6e87b9f70255377e024ace6630c1eaa37f7f000000000000000000000000000000000000000000000000000000000000000083610965565b604080516101608101825273326c977e6efc84e512bb9c30f76e30c160ed06fb81527307865c6e87b9f70255377e024ace6630c1eaa37f6020820152606481830152620d89e7196060820152620d89e8608082015260a0810184905260c08101839052600060e0820181905261010082015230610120820152426101408201529051634418b22b60e11b81527f00000000000000000000000000000000000000000000000000000000000000006001600160a01b031690638831645690610344908490600401610f5a565b608060405180830381600087803b15801561035e57600080fd5b505af1158015610372573d6000803e3d6000fd5b505050506040513d601f19601f820116820180604052508101906103969190610d39565b929950909750955093506103aa3388610646565b82851015610416576103f273326c977e6efc84e512bb9c30f76e30c160ed06fb7f00000000000000000000000000000000000000000000000000000000000000006000610965565b84830361041473326c977e6efc84e512bb9c30f76e30c160ed06fb3383610ab3565b505b818410156104825761045e7307865c6e87b9f70255377e024ace6630c1eaa37f7f00000000000000000000000000000000000000000000000000000000000000006000610965565b8382036104807307865c6e87b9f70255377e024ace6630c1eaa37f3383610ab3565b505b50505090919293565b60008181526001602052604081205481906001600160a01b031633146104cc5760405162461bcd60e51b81526004016104c390610ef0565b60405180910390fd5b600083815260016020818152604080842090920154825160a0810184528781526001600160801b0390911691810182905280830184905260608101939093524260808401529051630624e65f60e11b8152909182916001600160a01b037f00000000000000000000000000000000000000000000000000000000000000001690630c49ccbe90610560908490600401610f17565b6040805180830381600087803b15801561057957600080fd5b505af115801561058d573d6000803e3d6000fd5b505050506040513d601f19601f820116820180604052508101906105b19190610d74565b90955093506105c1868686610bfa565b505050915091565b7307865c6e87b9f70255377e024ace6630c1eaa37f81565b600160208190526000918252604090912080549181015460028201546003909201546001600160a01b03938416936001600160801b03909216928216911684565b7f000000000000000000000000000000000000000000000000000000000000000081565b60008060007f00000000000000000000000000000000000000000000000000000000000000006001600160a01b03166399fbab88856040518263ffffffff1660e01b81526004016106979190611018565b6101806040518083038186803b1580156106b057600080fd5b505afa1580156106c4573d6000803e3d6000fd5b505050506040513d601f19601f820116820180604052508101906106e89190610d97565b5050505097505050509450945050506040518060800160405280866001600160a01b03168152602001826001600160801b03168152602001846001600160a01b03168152602001836001600160a01b03168152506001600086815260200190815260200160002060008201518160000160006101000a8154816001600160a01b0302191690836001600160a01b0316021790555060208201518160010160006101000a8154816001600160801b0302191690836001600160801b0316021790555060408201518160020160006101000a8154816001600160a01b0302191690836001600160a01b0316021790555060608201518160030160006101000a8154816001600160a01b0302191690836001600160a01b031602179055509050505050505050565b604080516001600160a01b0385811660248301528481166044830152606480830185905283518084039091018152608490920183526020820180516001600160e01b03166323b872dd60e01b178152925182516000948594938a169392918291908083835b602083106108915780518252601f199092019160209182019101610872565b6001836020036101000a0380198251168184511680821785525050505050509050019150506000604051808303816000865af19150503d80600081146108f3576040519150601f19603f3d011682016040523d82523d6000602084013e6108f8565b606091505b5091509150818015610926575080511580610926575080806020019051602081101561092357600080fd5b50515b61095d576040805162461bcd60e51b815260206004820152600360248201526229aa2360e91b604482015290519081900360640190fd5b505050505050565b604080516001600160a01b038481166024830152604480830185905283518084039091018152606490920183526020820180516001600160e01b031663095ea7b360e01b1781529251825160009485949389169392918291908083835b602083106109e15780518252601f1990920191602091820191016109c2565b6001836020036101000a0380198251168184511680821785525050505050509050019150506000604051808303816000865af19150503d8060008114610a43576040519150601f19603f3d011682016040523d82523d6000602084013e610a48565b606091505b5091509150818015610a76575080511580610a765750808060200190516020811015610a7357600080fd5b50515b610aac576040805162461bcd60e51b8152602060048201526002602482015261534160f01b604482015290519081900360640190fd5b5050505050565b604080516001600160a01b038481166024830152604480830185905283518084039091018152606490920183526020820180516001600160e01b031663a9059cbb60e01b1781529251825160009485949389169392918291908083835b60208310610b2f5780518252601f199092019160209182019101610b10565b6001836020036101000a0380198251168184511680821785525050505050509050019150506000604051808303816000865af19150503d8060008114610b91576040519150601f19603f3d011682016040523d82523d6000602084013e610b96565b606091505b5091509150818015610bc4575080511580610bc45750808060200190516020811015610bc157600080fd5b50515b610aac576040805162461bcd60e51b815260206004820152600260248201526114d560f21b604482015290519081900360640190fd5b6000838152600160205260409020805460028201546003909201546001600160a01b039182169282169116610c30828487610ab3565b61095d818486610ab3565b8051610c4681611053565b919050565b8051600281900b8114610c4657600080fd5b80516001600160801b0381168114610c4657600080fd5b805162ffffff81168114610c4657600080fd5b600080600080600060808688031215610c9e578081fd5b8535610ca981611053565b94506020860135610cb981611053565b935060408601359250606086013567ffffffffffffffff80821115610cdc578283fd5b818801915088601f830112610cef578283fd5b813581811115610cfd578384fd5b896020828501011115610d0e578384fd5b9699959850939650602001949392505050565b600060208284031215610d32578081fd5b5035919050565b60008060008060808587031215610d4e578384fd5b84519350610d5e60208601610c5d565b6040860151606090960151949790965092505050565b60008060408385031215610d86578182fd5b505080516020909101519092909150565b6000806000806000806000806000806000806101808d8f031215610db9578687fd5b8c516bffffffffffffffffffffffff81168114610dd4578788fd5b9b50610de260208e01610c3b565b9a50610df060408e01610c3b565b9950610dfe60608e01610c3b565b9850610e0c60808e01610c74565b9750610e1a60a08e01610c4b565b9650610e2860c08e01610c4b565b9550610e3660e08e01610c5d565b94506101008d015193506101208d01519250610e556101408e01610c5d565b9150610e646101608e01610c5d565b90509295989b509295989b509295989b565b6001600160a01b03169052565b60020b9052565b62ffffff169052565b6001600160a01b0391909116815260200190565b6001600160a01b0394851681526001600160801b039390931660208401529083166040830152909116606082015260800190565b6001600160e01b031991909116815260200190565b6020808252600d908201526c2737ba103a34329037bbb732b960991b604082015260600190565b600060a082019050825182526001600160801b03602084015116602083015260408301516040830152606083015160608301526080830151608083015292915050565b600061016082019050610f6e828451610e76565b6020830151610f806020840182610e76565b506040830151610f936040840182610e8a565b506060830151610fa66060840182610e83565b506080830151610fb96080840182610e83565b5060a083015160a083015260c083015160c083015260e083015160e083015261010080840151818401525061012080840151610ff782850182610e76565b505061014092830151919092015290565b62ffffff91909116815260200190565b90815260200190565b9384526001600160801b039290921660208401526040830152606082015260800190565b918252602082015260400190565b6001600160a01b038116811461106857600080fd5b5056fea2646970667358221220fe9a47aa25b9e1a42c29e85c2cd6d1465b89b38c86693a9a9e7d98c5d7898a5d64736f6c63430007060033",
  "immutableReferences": {
    "1426": [
      {
        "length": 32,
        "start": 533
      },
      {
        "length": 32,
        "start": 596
      },
      {
        "length": 32,
        "start": 775
      },
      {
        "length": 32,
        "start": 972
      },
      {
        "length": 32,
        "start": 1080
      },
      {
        "length": 32,
        "start": 1323
      },
      {
        "length": 32,
        "start": 1572
      },
      {
        "length": 32,
        "start": 1613
      }
    ]
  },
  "source": "// SPDX-License-Identifier: MIT\r\npragma solidity = 0.7.6;\r\npragma abicoder v2;\r\n\r\nimport \"@uniswap/v3-periphery/contracts/interfaces/INonfungiblePositionManager.sol\";\r\nimport '@uniswap/v3-periphery/contracts/libraries/TransferHelper.sol';\r\nimport '@openzeppelin/contracts/token/ERC721/IERC721Receiver.sol';\r\nimport '@uniswap/v3-core/contracts/libraries/TickMath.sol';\r\n\r\ncontract UniswapExitPosition is IERC721Receiver {\r\n\r\n    address public constant LINK = 0x326C977E6efc84E512bB9C30f76E30c160eD06FB;\r\n    address public constant USDC = 0x07865c6E87B9F70255377e024ace6630C1Eaa37F;\r\n\r\n    uint24 public constant poolFee = 100;\r\n\r\n    address public nonfungiblePositionAddress = 0xC36442b4a4522E871399CD717aBDD847Ab11FE88;\r\n    INonfungiblePositionManager public immutable nonfungiblePositionManager;\r\n\r\n    struct Deposit {\r\n        address owner;\r\n        uint128 liquidity;\r\n        address token0;\r\n        address token1;\r\n    }\r\n\r\n    mapping(uint256 => Deposit) public deposits;\r\n\r\n    constructor(\r\n        //INonfungiblePositionManager _nonfungiblePositionManager\r\n    ) {\r\n        //nonfungiblePositionManager = _nonfungiblePositionManager;\r\n        nonfungiblePositionManager = INonfungiblePositionManager(nonfungiblePositionAddress);\r\n    }\r\n\r\n    function onERC721Received(\r\n        address operator,\r\n        address,\r\n        uint256 tokenId,\r\n        bytes calldata\r\n    ) external override returns (bytes4) {\r\n        // get position information\r\n\r\n        _createDeposit(operator, tokenId);\r\n\r\n        return this.onERC721Received.selector;\r\n    }\r\n\r\n    function _createDeposit(address owner, uint256 tokenId) internal {\r\n        (, , address token0, address token1, , , , uint128 liquidity, , , , ) =\r\n            nonfungiblePositionManager.positions(tokenId);\r\n\r\n        // set the owner and data for position\r\n        // operator is msg.sender\r\n        deposits[tokenId] = Deposit({owner: owner, liquidity: liquidity, token0: token0, token1: token1});\r\n    }\r\n\r\n    function mintNewPosition()\r\n        external\r\n        returns (\r\n            uint256 tokenId,\r\n            uint128 liquidity,\r\n            uint256 amount0,\r\n            uint256 amount1\r\n        )\r\n    {\r\n        // For this example, we will provide equal amounts of liquidity in both assets.\r\n        // Providing liquidity in both assets means liquidity will be earning fees and is considered in-range.\r\n        uint256 amount0ToMint = 1 * 10**18;\r\n        uint256 amount1ToMint = 1 * 10**6;\r\n\r\n        // transfer tokens to contract\r\n        TransferHelper.safeTransferFrom(LINK, msg.sender, address(this), amount0ToMint);\r\n        TransferHelper.safeTransferFrom(USDC, msg.sender, address(this), amount1ToMint);\r\n\r\n        // Approve the position manager\r\n        TransferHelper.safeApprove(LINK, address(nonfungiblePositionManager), amount0ToMint);\r\n        TransferHelper.safeApprove(USDC, address(nonfungiblePositionManager), amount1ToMint);\r\n\r\n        INonfungiblePositionManager.MintParams memory params =\r\n            INonfungiblePositionManager.MintParams({\r\n                token0: LINK,\r\n                token1: USDC,\r\n                fee: poolFee,\r\n                tickLower: TickMath.MIN_TICK,\r\n                tickUpper: TickMath.MAX_TICK,\r\n                amount0Desired: amount0ToMint,\r\n                amount1Desired: amount1ToMint,\r\n                amount0Min: 0,\r\n                amount1Min: 0,\r\n                recipient: address(this),\r\n                deadline: block.timestamp\r\n            });\r\n\r\n        // Note that the pool defined by LINK/USDC and fee tier 0.3% must already be created and initialized in order to mint\r\n        (tokenId, liquidity, amount0, amount1) = nonfungiblePositionManager.mint(params);\r\n\r\n        // Create a deposit\r\n        _createDeposit(msg.sender, tokenId);\r\n\r\n        // Remove allowance and refund in both assets.\r\n        if (amount0 < amount0ToMint) {\r\n            TransferHelper.safeApprove(LINK, address(nonfungiblePositionManager), 0);\r\n            uint256 refund0 = amount0ToMint - amount0;\r\n            TransferHelper.safeTransfer(LINK, msg.sender, refund0);\r\n        }\r\n\r\n        if (amount1 < amount1ToMint) {\r\n            TransferHelper.safeApprove(USDC, address(nonfungiblePositionManager), 0);\r\n            uint256 refund1 = amount1ToMint - amount1;\r\n            TransferHelper.safeTransfer(USDC, msg.sender, refund1);\r\n        }\r\n    }\r\n\r\n\r\n    function exitPosition(uint256 tokenId) external returns (uint256 amount0, uint256 amount1) {\r\n        // caller must be the owner of the NFT\r\n        require(msg.sender == deposits[tokenId].owner, 'Not the owner');\r\n        // get liquidity data for tokenId\r\n        uint128 liquidity = deposits[tokenId].liquidity;\r\n        uint128 exitLiquidity = liquidity; //liquidity / 2;\r\n\r\n        // amount0Min and amount1Min are price slippage checks\r\n        // if the amount received after burning is not greater than these minimums, transaction will fail\r\n        INonfungiblePositionManager.DecreaseLiquidityParams memory params =\r\n            INonfungiblePositionManager.DecreaseLiquidityParams({\r\n                tokenId: tokenId,\r\n                liquidity: exitLiquidity,\r\n                amount0Min: 0,\r\n                amount1Min: 0,\r\n                deadline: block.timestamp\r\n            });\r\n\r\n        (amount0, amount1) = nonfungiblePositionManager.decreaseLiquidity(params);\r\n\r\n        //send liquidity back to owner\r\n        _sendToOwner(tokenId, amount0, amount1);\r\n    }\r\n\r\n    function _sendToOwner(\r\n        uint256 tokenId,\r\n        uint256 amount0,\r\n        uint256 amount1\r\n    ) internal {\r\n        // get owner of contract\r\n        address owner = deposits[tokenId].owner;\r\n\r\n        address token0 = deposits[tokenId].token0;\r\n        address token1 = deposits[tokenId].token1;\r\n        // send collected fees to owner\r\n        TransferHelper.safeTransfer(token0, owner, amount0);\r\n        TransferHelper.safeTransfer(token1, owner, amount1);\r\n    }\r\n\r\n}",
  "sourcePath": "C:\\Development\\Products\\Blockchain\\Uniswap\\ExitPosition\\contracts\\UniswapExitPosition.sol",
  "compiler": {
    "name": "solc",
    "version": "0.7.6+commit.7338295f.Emscripten.clang"
  },
  "schemaVersion": "3.4.10",
  "updatedAt": "2022-12-19T20:16:41.061Z",
  "networkType": "ethereum",
  "devdoc": {
    "kind": "dev",
    "methods": {},
    "version": 1
  },
  "userdoc": {
    "kind": "user",
    "methods": {},
    "version": 1
  }
}