{
  "_format": "hh-sol-artifact-1",
  "contractName": "UniswapExitPosition",
  "sourceName": "contracts/UniswapExitPosition.sol",
  "abi": [
    {
      "inputs": [],
      "stateMutability": "nonpayable",
      "type": "constructor"
    },
    {
      "inputs": [],
      "name": "LINK",
      "outputs": [
        {
          "internalType": "address",
          "name": "",
          "type": "address"
        }
      ],
      "stateMutability": "view",
      "type": "function"
    },
    {
      "inputs": [],
      "name": "USDC",
      "outputs": [
        {
          "internalType": "address",
          "name": "",
          "type": "address"
        }
      ],
      "stateMutability": "view",
      "type": "function"
    },
    {
      "inputs": [
        {
          "internalType": "uint256",
          "name": "",
          "type": "uint256"
        }
      ],
      "name": "deposits",
      "outputs": [
        {
          "internalType": "address",
          "name": "owner",
          "type": "address"
        },
        {
          "internalType": "uint128",
          "name": "liquidity",
          "type": "uint128"
        },
        {
          "internalType": "address",
          "name": "token0",
          "type": "address"
        },
        {
          "internalType": "address",
          "name": "token1",
          "type": "address"
        }
      ],
      "stateMutability": "view",
      "type": "function"
    },
    {
      "inputs": [
        {
          "internalType": "uint256",
          "name": "tokenId",
          "type": "uint256"
        }
      ],
      "name": "exitPosition",
      "outputs": [
        {
          "internalType": "uint256",
          "name": "amount0",
          "type": "uint256"
        },
        {
          "internalType": "uint256",
          "name": "amount1",
          "type": "uint256"
        },
        {
          "internalType": "uint256",
          "name": "camount0",
          "type": "uint256"
        },
        {
          "internalType": "uint256",
          "name": "camount1",
          "type": "uint256"
        }
      ],
      "stateMutability": "nonpayable",
      "type": "function"
    },
    {
      "inputs": [
        {
          "internalType": "uint256",
          "name": "_tokenId",
          "type": "uint256"
        }
      ],
      "name": "getLiquidity",
      "outputs": [
        {
          "internalType": "uint128",
          "name": "",
          "type": "uint128"
        }
      ],
      "stateMutability": "view",
      "type": "function"
    },
    {
      "inputs": [],
      "name": "mintNewPosition",
      "outputs": [
        {
          "internalType": "uint256",
          "name": "tokenId",
          "type": "uint256"
        },
        {
          "internalType": "uint128",
          "name": "liquidity",
          "type": "uint128"
        },
        {
          "internalType": "uint256",
          "name": "amount0",
          "type": "uint256"
        },
        {
          "internalType": "uint256",
          "name": "amount1",
          "type": "uint256"
        }
      ],
      "stateMutability": "nonpayable",
      "type": "function"
    },
    {
      "inputs": [],
      "name": "nonfungiblePositionManager",
      "outputs": [
        {
          "internalType": "contract INonfungiblePositionManager",
          "name": "",
          "type": "address"
        }
      ],
      "stateMutability": "view",
      "type": "function"
    },
    {
      "inputs": [
        {
          "internalType": "address",
          "name": "operator",
          "type": "address"
        },
        {
          "internalType": "address",
          "name": "",
          "type": "address"
        },
        {
          "internalType": "uint256",
          "name": "tokenId",
          "type": "uint256"
        },
        {
          "internalType": "bytes",
          "name": "",
          "type": "bytes"
        }
      ],
      "name": "onERC721Received",
      "outputs": [
        {
          "internalType": "bytes4",
          "name": "",
          "type": "bytes4"
        }
      ],
      "stateMutability": "nonpayable",
      "type": "function"
    },
    {
      "inputs": [],
      "name": "poolFee",
      "outputs": [
        {
          "internalType": "uint24",
          "name": "",
          "type": "uint24"
        }
      ],
      "stateMutability": "view",
      "type": "function"
    },
    {
      "inputs": [],
      "name": "tokenId",
      "outputs": [
        {
          "internalType": "uint256",
          "name": "",
          "type": "uint256"
        }
      ],
      "stateMutability": "view",
      "type": "function"
    }
  ],
  "bytecode": "0x6080604052600080546001600160a01b03191673c36442b4a4522e871399cd717abdd847ab11fe8817905534801561003657600080fd5b5061152f806100466000396000f3fe608060405234801561001057600080fd5b50600436106100be5760003560e01c806378dc905911610076578063951583c31161005b578063951583c31461016e578063b02c43d01461018e578063b44a2722146101b1576100be565b806378dc90591461014357806389a3027114610166576100be565b806317d70f7c116100a757806317d70f7c146101015780631b6b6d2314610116578063306d9c611461012b576100be565b8063089fe6aa146100c3578063150b7a02146100e1575b600080fd5b6100cb6101b9565b6040516100d8919061148c565b60405180910390f35b6100f46100ef36600461108c565b6101be565b6040516100d891906112e0565b6101096101f5565b6040516100d8919061149c565b61011e6101fb565b6040516100d89190611298565b610133610213565b6040516100d894939291906114a5565b610156610151366004611126565b610573565b6040516100d894939291906114c9565b61011e61077c565b61018161017c366004611126565b610794565b6040516100d89190611478565b6101a161019c366004611126565b61082b565b6040516100d894939291906112ac565b61011e61086c565b606481565b60006101ca868561087b565b507f150b7a020000000000000000000000000000000000000000000000000000000095945050505050565b60025481565b736b175474e89094c44da98b954eedeac495271d0f81565b600080808068056bc75e2d631000006305f5e100610247736b175474e89094c44da98b954eedeac495271d0f333085610a2d565b61026773a0b86991c6218b36c1d19d4a2e9eb0ce3606eb48333084610a2d565b60005461029390736b175474e89094c44da98b954eedeac495271d0f906001600160a01b031684610bb8565b6000546102bf9073a0b86991c6218b36c1d19d4a2e9eb0ce3606eb48906001600160a01b031683610bb8565b6040805161016081018252736b175474e89094c44da98b954eedeac495271d0f815273a0b86991c6218b36c1d19d4a2e9eb0ce3606eb486020820152606481830152620d89e7196060820152620d89e8608082015260a0810184905260c08101839052600060e08201819052610100820181905230610120830152426101408301525491517f8831645600000000000000000000000000000000000000000000000000000000815290916001600160a01b0316906388316456906103879084906004016113ca565b608060405180830381600087803b1580156103a157600080fd5b505af11580156103b5573d6000803e3d6000fd5b505050506040513d601f19601f820116820180604052508101906103d9919061113e565b60408051808201909152600881527f746f6b656e49643a0000000000000000000000000000000000000000000000006020820152939a509198509650945061042090610d3a565b61042987610dfc565b610433338861087b565b828510156104d3576000805461046891736b175474e89094c44da98b954eedeac495271d0f916001600160a01b031690610bb8565b84830361048a736b175474e89094c44da98b954eedeac495271d0f3383610e56565b6104c86040518060400160405280600781526020017f5346204c494e4b00000000000000000000000000000000000000000000000000815250610d3a565b6104d181610dfc565b505b8184101561056a57600080546105089173a0b86991c6218b36c1d19d4a2e9eb0ce3606eb48916001600160a01b031690610bb8565b83820361052a73a0b86991c6218b36c1d19d4a2e9eb0ce3606eb483383610e56565b6105686040518060400160405280600681526020017f5346205553440000000000000000000000000000000000000000000000000000815250610d3a565b505b50505090919293565b6000818152600160205260408120548190819081906001600160a01b031633146105b85760405162461bcd60e51b81526004016105af9061130d565b60405180910390fd5b600085815260016020818152604080842090920154825160a0810184528981526001600160801b0390911691810182905280830184905260608101849052426080820152925491517f0c49ccbe0000000000000000000000000000000000000000000000000000000081529092839290916001600160a01b0390911690630c49ccbe90610649908490600401611387565b6040805180830381600087803b15801561066257600080fd5b505af1158015610676573d6000803e3d6000fd5b505050506040513d601f19601f8201168201806040525081019061069a9190611179565b604080516080810182528b81523060208201526001600160801b03818301819052606082015260005491517ffc6f7865000000000000000000000000000000000000000000000000000000008152939a5091985090916001600160a01b039091169063fc6f786590610710908490600401611344565b6040805180830381600087803b15801561072957600080fd5b505af115801561073d573d6000803e3d6000fd5b505050506040513d601f19601f820116820180604052508101906107619190611179565b9096509450610771898787610fd1565b505050509193509193565b73a0b86991c6218b36c1d19d4a2e9eb0ce3606eb4881565b6000805460405163133f757160e31b815282916001600160a01b0316906399fbab88906107c590869060040161149c565b6101806040518083038186803b1580156107de57600080fd5b505afa1580156107f2573d6000803e3d6000fd5b505050506040513d601f19601f82011682018060405250810190610816919061119c565b50929b5050505050505050505050505b919050565b600160208190526000918252604090912080549181015460028201546003909201546001600160a01b03938416936001600160801b03909216928216911684565b6000546001600160a01b031681565b6000805460405163133f757160e31b8152829182916001600160a01b03909116906399fbab88906108b090879060040161149c565b6101806040518083038186803b1580156108c957600080fd5b505afa1580156108dd573d6000803e3d6000fd5b505050506040513d601f19601f82011682018060405250810190610901919061119c565b5050505097505050509450945050506040518060800160405280866001600160a01b03168152602001826001600160801b03168152602001846001600160a01b03168152602001836001600160a01b03168152506001600086815260200190815260200160002060008201518160000160006101000a8154816001600160a01b0302191690836001600160a01b0316021790555060208201518160010160006101000a8154816001600160801b0302191690836001600160801b0316021790555060408201518160020160006101000a8154816001600160a01b0302191690836001600160a01b0316021790555060608201518160030160006101000a8154816001600160a01b0302191690836001600160a01b03160217905550905050836002819055505050505050565b604080516001600160a01b0385811660248301528481166044830152606480830185905283518084039091018152608490920183526020820180516001600160e01b03167f23b872dd00000000000000000000000000000000000000000000000000000000178152925182516000948594938a169392918291908083835b60208310610aca5780518252601f199092019160209182019101610aab565b6001836020036101000a0380198251168184511680821785525050505050509050019150506000604051808303816000865af19150503d8060008114610b2c576040519150601f19603f3d011682016040523d82523d6000602084013e610b31565b606091505b5091509150818015610b5f575080511580610b5f5750808060200190516020811015610b5c57600080fd5b50515b610bb0576040805162461bcd60e51b815260206004820152600360248201527f5354460000000000000000000000000000000000000000000000000000000000604482015290519081900360640190fd5b505050505050565b604080516001600160a01b038481166024830152604480830185905283518084039091018152606490920183526020820180516001600160e01b03167f095ea7b3000000000000000000000000000000000000000000000000000000001781529251825160009485949389169392918291908083835b60208310610c4d5780518252601f199092019160209182019101610c2e565b6001836020036101000a0380198251168184511680821785525050505050509050019150506000604051808303816000865af19150503d8060008114610caf576040519150601f19603f3d011682016040523d82523d6000602084013e610cb4565b606091505b5091509150818015610ce2575080511580610ce25750808060200190516020811015610cdf57600080fd5b50515b610d33576040805162461bcd60e51b815260206004820152600260248201527f5341000000000000000000000000000000000000000000000000000000000000604482015290519081900360640190fd5b5050505050565b610df9816040516024018080602001828103825283818151815260200191508051906020019080838360005b83811015610d7e578181015183820152602001610d66565b50505050905090810190601f168015610dab5780820380516001836020036101000a031916815260200191505b5060408051601f198184030181529190526020810180516001600160e01b03167f41304fac000000000000000000000000000000000000000000000000000000001790529250611024915050565b50565b6040805160248082018490528251808303909101815260449091019091526020810180516001600160e01b03167ff82c50f100000000000000000000000000000000000000000000000000000000179052610df990611024565b604080516001600160a01b038481166024830152604480830185905283518084039091018152606490920183526020820180516001600160e01b03167fa9059cbb000000000000000000000000000000000000000000000000000000001781529251825160009485949389169392918291908083835b60208310610eeb5780518252601f199092019160209182019101610ecc565b6001836020036101000a0380198251168184511680821785525050505050509050019150506000604051808303816000865af19150503d8060008114610f4d576040519150601f19603f3d011682016040523d82523d6000602084013e610f52565b606091505b5091509150818015610f80575080511580610f805750808060200190516020811015610f7d57600080fd5b50515b610d33576040805162461bcd60e51b815260206004820152600260248201527f5354000000000000000000000000000000000000000000000000000000000000604482015290519081900360640190fd5b6000838152600160205260409020805460028201546003909201546001600160a01b03918216928216911661100585610dfc565b61100e84610dfc565b611019828487610e56565b610bb0818486610e56565b80516a636f6e736f6c652e6c6f67602083016000808483855afa5050505050565b8051610826816114e4565b8051600281900b811461082657600080fd5b80516001600160801b038116811461082657600080fd5b805162ffffff8116811461082657600080fd5b6000806000806000608086880312156110a3578081fd5b85356110ae816114e4565b945060208601356110be816114e4565b935060408601359250606086013567ffffffffffffffff808211156110e1578283fd5b818801915088601f8301126110f4578283fd5b813581811115611102578384fd5b896020828501011115611113578384fd5b9699959850939650602001949392505050565b600060208284031215611137578081fd5b5035919050565b60008060008060808587031215611153578384fd5b8451935061116360208601611062565b6040860151606090960151949790965092505050565b6000806040838503121561118b578182fd5b505080516020909101519092909150565b6000806000806000806000806000806000806101808d8f0312156111be578687fd5b8c516bffffffffffffffffffffffff811681146111d9578788fd5b9b506111e760208e01611045565b9a506111f560408e01611045565b995061120360608e01611045565b985061121160808e01611079565b975061121f60a08e01611050565b965061122d60c08e01611050565b955061123b60e08e01611062565b94506101008d015193506101208d0151925061125a6101408e01611062565b91506112696101608e01611062565b90509295989b509295989b509295989b565b6001600160a01b03169052565b60020b9052565b62ffffff169052565b6001600160a01b0391909116815260200190565b6001600160a01b0394851681526001600160801b039390931660208401529083166040830152909116606082015260800190565b7fffffffff0000000000000000000000000000000000000000000000000000000091909116815260200190565b6020808252600d908201527f4e6f7420746865206f776e657200000000000000000000000000000000000000604082015260600190565b815181526020808301516001600160a01b0316908201526040808301516001600160801b0390811691830191909152606092830151169181019190915260800190565b600060a082019050825182526001600160801b03602084015116602083015260408301516040830152606083015160608301526080830151608083015292915050565b6000610160820190506113de82845161127b565b60208301516113f0602084018261127b565b506040830151611403604084018261128f565b5060608301516114166060840182611288565b5060808301516114296080840182611288565b5060a083015160a083015260c083015160c083015260e083015160e0830152610100808401518184015250610120808401516114678285018261127b565b505061014092830151919092015290565b6001600160801b0391909116815260200190565b62ffffff91909116815260200190565b90815260200190565b9384526001600160801b039290921660208401526040830152606082015260800190565b93845260208401929092526040830152606082015260800190565b6001600160a01b0381168114610df957600080fdfea2646970667358221220738ec57612490b4be19057d2b88377db53953b05a11ab8d8acb3ff8a2d568a9e64736f6c63430007060033",
  "linkReferences": {},
  "deployedLinkReferences": {}
}