{
  "contractName": "UniswapExitPosition",
  "abi": [
    {
      "inputs": [],
      "stateMutability": "nonpayable",
      "type": "constructor"
    },
    {
      "inputs": [
        {
          "internalType": "uint256",
          "name": "",
          "type": "uint256"
        }
      ],
      "name": "deposits",
      "outputs": [
        {
          "internalType": "address",
          "name": "owner",
          "type": "address"
        },
        {
          "internalType": "uint128",
          "name": "liquidity",
          "type": "uint128"
        },
        {
          "internalType": "address",
          "name": "token0",
          "type": "address"
        },
        {
          "internalType": "address",
          "name": "token1",
          "type": "address"
        }
      ],
      "stateMutability": "view",
      "type": "function"
    },
    {
      "inputs": [],
      "name": "nonfungiblePositionAddress",
      "outputs": [
        {
          "internalType": "address",
          "name": "",
          "type": "address"
        }
      ],
      "stateMutability": "view",
      "type": "function"
    },
    {
      "inputs": [],
      "name": "nonfungiblePositionManager",
      "outputs": [
        {
          "internalType": "contract INonfungiblePositionManager",
          "name": "",
          "type": "address"
        }
      ],
      "stateMutability": "view",
      "type": "function"
    },
    {
      "inputs": [
        {
          "internalType": "address",
          "name": "operator",
          "type": "address"
        },
        {
          "internalType": "address",
          "name": "",
          "type": "address"
        },
        {
          "internalType": "uint256",
          "name": "tokenId",
          "type": "uint256"
        },
        {
          "internalType": "bytes",
          "name": "",
          "type": "bytes"
        }
      ],
      "name": "onERC721Received",
      "outputs": [
        {
          "internalType": "bytes4",
          "name": "",
          "type": "bytes4"
        }
      ],
      "stateMutability": "nonpayable",
      "type": "function"
    },
    {
      "inputs": [
        {
          "internalType": "uint256",
          "name": "tokenId",
          "type": "uint256"
        }
      ],
      "name": "exitPosition",
      "outputs": [
        {
          "internalType": "uint256",
          "name": "amount0",
          "type": "uint256"
        },
        {
          "internalType": "uint256",
          "name": "amount1",
          "type": "uint256"
        }
      ],
      "stateMutability": "nonpayable",
      "type": "function"
    }
  ],
  "bytecode": "0x60a060405260008054600160a060020a03191673c36442b4a4522e871399cd717abdd847ab11fe8817905534801561003657600080fd5b506000546c01000000000000000000000000600160a060020a03909116026080526080516c010000000000000000000000009004610a6d61008b600039806101fb52806102e4528061030d5250610a6d6000f3fe608060405234801561001057600080fd5b5060043610610073577c010000000000000000000000000000000000000000000000000000000060003504630d2f175d8114610078578063150b7a021461009657806378dc9059146100b6578063b02c43d0146100d7578063b44a2722146100fa575b600080fd5b610080610102565b60405161008d9190610907565b60405180910390f35b6100a96100a4366004610753565b610111565b60405161008d9190610958565b6100c96100c43660046107ed565b610148565b60405161008d929190610a11565b6100ea6100e53660046107ed565b610298565b60405161008d949392919061091b565b6100806102e2565b600054600160a060020a031681565b600061011d8685610306565b507f150b7a020000000000000000000000000000000000000000000000000000000095945050505050565b6000818152600160205260408120548190600160a060020a031633146101a3576040517f08c379a000000000000000000000000000000000000000000000000000000000815260040161019a90610985565b60405180910390fd5b6040805160a0810182528481526000602082018190528183018190526060820181905242608083015291517f0c49ccbe000000000000000000000000000000000000000000000000000000008152600160a060020a037f00000000000000000000000000000000000000000000000000000000000000001690630c49ccbe906102309084906004016109bc565b6040805180830381600087803b15801561024957600080fd5b505af115801561025d573d6000803e3d6000fd5b505050506040513d601f19601f820116820180604052508101906102819190610805565b9094509250610291858585610504565b5050915091565b60016020819052600091825260409091208054918101546002820154600390920154600160a060020a03938416936fffffffffffffffffffffffffffffffff909216928216911684565b7f000000000000000000000000000000000000000000000000000000000000000081565b60008060007f0000000000000000000000000000000000000000000000000000000000000000600160a060020a03166399fbab88856040518263ffffffff167c01000000000000000000000000000000000000000000000000000000000281526004016103739190610a08565b6101806040518083038186803b15801561038c57600080fd5b505afa1580156103a0573d6000803e3d6000fd5b505050506040513d601f19601f820116820180604052508101906103c49190610828565b505050509750505050945094505050604051806080016040528086600160a060020a03168152602001826fffffffffffffffffffffffffffffffff16815260200184600160a060020a0316815260200183600160a060020a03168152506001600086815260200190815260200160002060008201518160000160006101000a815481600160a060020a030219169083600160a060020a0316021790555060208201518160010160006101000a8154816fffffffffffffffffffffffffffffffff02191690836fffffffffffffffffffffffffffffffff16021790555060408201518160020160006101000a815481600160a060020a030219169083600160a060020a0316021790555060608201518160030160006101000a815481600160a060020a030219169083600160a060020a031602179055509050505050505050565b600083815260016020526040902080546002820154600390920154600160a060020a03918216928216911661053a82848761054d565b61054581848661054d565b505050505050565b60408051600160a060020a038481166024830152604480830185905283518084039091018152606490920183526020820180517bffffffffffffffffffffffffffffffffffffffffffffffffffffffff167fa9059cbb000000000000000000000000000000000000000000000000000000001781529251825160009485949389169392918291908083835b602083106105f75780518252601f1990920191602091820191016105d8565b6001836020036101000a0380198251168184511680821785525050505050509050019150506000604051808303816000865af19150503d8060008114610659576040519150601f19603f3d011682016040523d82523d6000602084013e61065e565b606091505b509150915081801561068c57508051158061068c575080806020019051602081101561068957600080fd5b50515b6106f757604080517f08c379a000000000000000000000000000000000000000000000000000000000815260206004820152600260248201527f5354000000000000000000000000000000000000000000000000000000000000604482015290519081900360640190fd5b5050505050565b805161070981610a1f565b919050565b8051600281900b811461070957600080fd5b80516fffffffffffffffffffffffffffffffff8116811461070957600080fd5b805162ffffff8116811461070957600080fd5b60008060008060006080868803121561076a578081fd5b853561077581610a1f565b9450602086013561078581610a1f565b935060408601359250606086013567ffffffffffffffff808211156107a8578283fd5b818801915088601f8301126107bb578283fd5b8135818111156107c9578384fd5b8960208285010111156107da578384fd5b9699959850939650602001949392505050565b6000602082840312156107fe578081fd5b5035919050565b60008060408385031215610817578182fd5b505080516020909101519092909150565b6000806000806000806000806000806000806101808d8f03121561084a578687fd5b8c516bffffffffffffffffffffffff81168114610865578788fd5b9b5061087360208e016106fe565b9a5061088160408e016106fe565b995061088f60608e016106fe565b985061089d60808e01610740565b97506108ab60a08e0161070e565b96506108b960c08e0161070e565b95506108c760e08e01610720565b94506101008d015193506101208d015192506108e66101408e01610720565b91506108f56101608e01610720565b90509295989b509295989b509295989b565b600160a060020a0391909116815260200190565b600160a060020a0394851681526fffffffffffffffffffffffffffffffff9390931660208401529083166040830152909116606082015260800190565b7fffffffff0000000000000000000000000000000000000000000000000000000091909116815260200190565b6020808252600d908201527f4e6f7420746865206f776e657200000000000000000000000000000000000000604082015260600190565b600060a082019050825182526fffffffffffffffffffffffffffffffff602084015116602083015260408301516040830152606083015160608301526080830151608083015292915050565b90815260200190565b918252602082015260400190565b600160a060020a0381168114610a3457600080fd5b5056fea26469706673582212208209666b2c9e4a41c83132adaa33af6c3748a49e08153738c33696b8475398f564736f6c63430007060033",
  "immutableReferences": {
    "848": [
      {
        "length": 32,
        "start": 507
      },
      {
        "length": 32,
        "start": 740
      },
      {
        "length": 32,
        "start": 781
      }
    ]
  },
  "source": "// SPDX-License-Identifier: MIT\r\npragma solidity = 0.7.6;\r\npragma abicoder v2;\r\n\r\nimport \"@uniswap/v3-periphery/contracts/interfaces/INonfungiblePositionManager.sol\";\r\nimport '@uniswap/v3-periphery/contracts/libraries/TransferHelper.sol';\r\nimport '@openzeppelin/contracts/token/ERC721/IERC721Receiver.sol';\r\n\r\ncontract UniswapExitPosition is IERC721Receiver {\r\n\r\n    address public nonfungiblePositionAddress = 0xC36442b4a4522E871399CD717aBDD847Ab11FE88;\r\n    INonfungiblePositionManager public immutable nonfungiblePositionManager;\r\n\r\n    struct Deposit {\r\n        address owner;\r\n        uint128 liquidity;\r\n        address token0;\r\n        address token1;\r\n    }\r\n\r\n    mapping(uint256 => Deposit) public deposits;\r\n\r\n    constructor(\r\n        //INonfungiblePositionManager _nonfungiblePositionManager\r\n    ) {\r\n        //nonfungiblePositionManager = _nonfungiblePositionManager;\r\n        nonfungiblePositionManager = INonfungiblePositionManager(nonfungiblePositionAddress);\r\n    }\r\n\r\n    function onERC721Received(\r\n        address operator,\r\n        address,\r\n        uint256 tokenId,\r\n        bytes calldata\r\n    ) external override returns (bytes4) {\r\n        // get position information\r\n\r\n        _createDeposit(operator, tokenId);\r\n\r\n        return this.onERC721Received.selector;\r\n    }\r\n\r\n    function _createDeposit(address owner, uint256 tokenId) internal {\r\n        (, , address token0, address token1, , , , uint128 liquidity, , , , ) =\r\n            nonfungiblePositionManager.positions(tokenId);\r\n\r\n        // set the owner and data for position\r\n        // operator is msg.sender\r\n        deposits[tokenId] = Deposit({owner: owner, liquidity: liquidity, token0: token0, token1: token1});\r\n    }\r\n\r\n    function exitPosition(uint256 tokenId) external returns (uint256 amount0, uint256 amount1) {\r\n        // caller must be the owner of the NFT\r\n        require(msg.sender == deposits[tokenId].owner, 'Not the owner');\r\n        // get liquidity data for tokenId\r\n        //uint128 liquidity = deposits[tokenId].liquidity;\r\n        uint128 exitLiquidity = 0; //liquidity / 2;\r\n\r\n        // amount0Min and amount1Min are price slippage checks\r\n        // if the amount received after burning is not greater than these minimums, transaction will fail\r\n        INonfungiblePositionManager.DecreaseLiquidityParams memory params =\r\n            INonfungiblePositionManager.DecreaseLiquidityParams({\r\n                tokenId: tokenId,\r\n                liquidity: exitLiquidity,\r\n                amount0Min: 0,\r\n                amount1Min: 0,\r\n                deadline: block.timestamp\r\n            });\r\n\r\n        (amount0, amount1) = nonfungiblePositionManager.decreaseLiquidity(params);\r\n\r\n        //send liquidity back to owner\r\n        _sendToOwner(tokenId, amount0, amount1);\r\n    }\r\n\r\n    function _sendToOwner(\r\n        uint256 tokenId,\r\n        uint256 amount0,\r\n        uint256 amount1\r\n    ) internal {\r\n        // get owner of contract\r\n        address owner = deposits[tokenId].owner;\r\n\r\n        address token0 = deposits[tokenId].token0;\r\n        address token1 = deposits[tokenId].token1;\r\n        // send collected fees to owner\r\n        TransferHelper.safeTransfer(token0, owner, amount0);\r\n        TransferHelper.safeTransfer(token1, owner, amount1);\r\n    }\r\n\r\n}",
  "sourcePath": "C:\\Development\\Products\\Blockchain\\Uniswap\\ExitPosition\\contracts\\UniswapExitPosition.sol",
  "compiler": {
    "name": "solc",
    "version": "0.7.6+commit.7338295f.Emscripten.clang"
  },
  "schemaVersion": "3.4.10",
  "updatedAt": "2022-12-15T17:45:39.490Z",
  "devdoc": {
    "kind": "dev",
    "methods": {},
    "version": 1
  },
  "userdoc": {
    "kind": "user",
    "methods": {},
    "version": 1
  }
}