{
  "_format": "hh-sol-artifact-1",
  "contractName": "UniswapExitPosition",
  "sourceName": "contracts/UniswapExitPosition.sol",
  "abi": [
    {
      "inputs": [],
      "stateMutability": "nonpayable",
      "type": "constructor"
    },
    {
      "inputs": [],
      "name": "LINK",
      "outputs": [
        {
          "internalType": "address",
          "name": "",
          "type": "address"
        }
      ],
      "stateMutability": "view",
      "type": "function"
    },
    {
      "inputs": [],
      "name": "USDC",
      "outputs": [
        {
          "internalType": "address",
          "name": "",
          "type": "address"
        }
      ],
      "stateMutability": "view",
      "type": "function"
    },
    {
      "inputs": [
        {
          "internalType": "uint256",
          "name": "",
          "type": "uint256"
        }
      ],
      "name": "deposits",
      "outputs": [
        {
          "internalType": "address",
          "name": "owner",
          "type": "address"
        },
        {
          "internalType": "uint128",
          "name": "liquidity",
          "type": "uint128"
        },
        {
          "internalType": "address",
          "name": "token0",
          "type": "address"
        },
        {
          "internalType": "address",
          "name": "token1",
          "type": "address"
        }
      ],
      "stateMutability": "view",
      "type": "function"
    },
    {
      "inputs": [
        {
          "internalType": "uint256",
          "name": "tokenId",
          "type": "uint256"
        }
      ],
      "name": "exitPosition",
      "outputs": [
        {
          "internalType": "uint256",
          "name": "amount0",
          "type": "uint256"
        },
        {
          "internalType": "uint256",
          "name": "amount1",
          "type": "uint256"
        }
      ],
      "stateMutability": "nonpayable",
      "type": "function"
    },
    {
      "inputs": [],
      "name": "mintNewPosition",
      "outputs": [
        {
          "internalType": "uint256",
          "name": "tokenId",
          "type": "uint256"
        },
        {
          "internalType": "uint128",
          "name": "liquidity",
          "type": "uint128"
        },
        {
          "internalType": "uint256",
          "name": "amount0",
          "type": "uint256"
        },
        {
          "internalType": "uint256",
          "name": "amount1",
          "type": "uint256"
        }
      ],
      "stateMutability": "nonpayable",
      "type": "function"
    },
    {
      "inputs": [],
      "name": "nonfungiblePositionManager",
      "outputs": [
        {
          "internalType": "contract INonfungiblePositionManager",
          "name": "",
          "type": "address"
        }
      ],
      "stateMutability": "view",
      "type": "function"
    },
    {
      "inputs": [
        {
          "internalType": "address",
          "name": "operator",
          "type": "address"
        },
        {
          "internalType": "address",
          "name": "",
          "type": "address"
        },
        {
          "internalType": "uint256",
          "name": "tokenId",
          "type": "uint256"
        },
        {
          "internalType": "bytes",
          "name": "",
          "type": "bytes"
        }
      ],
      "name": "onERC721Received",
      "outputs": [
        {
          "internalType": "bytes4",
          "name": "",
          "type": "bytes4"
        }
      ],
      "stateMutability": "nonpayable",
      "type": "function"
    },
    {
      "inputs": [],
      "name": "poolFee",
      "outputs": [
        {
          "internalType": "uint24",
          "name": "",
          "type": "uint24"
        }
      ],
      "stateMutability": "view",
      "type": "function"
    }
  ],
  "bytecode": "0x6080604052600080546001600160a01b03191673c36442b4a4522e871399cd717abdd847ab11fe8817905534801561003657600080fd5b50611095806100466000396000f3fe608060405234801561001057600080fd5b50600436106100885760003560e01c806378dc90591161005b57806378dc9059146100f857806389a3027114610119578063b02c43d014610121578063b44a27221461014457610088565b8063089fe6aa1461008d578063150b7a02146100ab5780631b6b6d23146100cb578063306d9c61146100e0575b600080fd5b61009561014c565b6040516100a29190610fff565b60405180910390f35b6100be6100b9366004610c56565b610151565b6040516100a29190610eaa565b6100d3610188565b6040516100a29190610e62565b6100e86101a0565b6040516100a29493929190611018565b61010b610106366004610cf0565b61047a565b6040516100a292919061103c565b6100d36105b5565b61013461012f366004610cf0565b6105cd565b6040516100a29493929190610e76565b6100d361060e565b606481565b600061015d868561061d565b507f150b7a020000000000000000000000000000000000000000000000000000000095945050505050565b736b175474e89094c44da98b954eedeac495271d0f81565b600080600080600068056bc75e2d63100000905060006305f5e10090506101fb6040518060400160405280601081526020017f4265666f72652073417070726f766564000000000000000000000000000000008152506107e1565b60005461022790736b175474e89094c44da98b954eedeac495271d0f906001600160a01b0316846108a3565b6000546102539073a0b86991c6218b36c1d19d4a2e9eb0ce3606eb48906001600160a01b0316836108a3565b6102916040518060400160405280600881526020017f417070726f7665640000000000000000000000000000000000000000000000008152506107e1565b6040805161016081018252736b175474e89094c44da98b954eedeac495271d0f815273a0b86991c6218b36c1d19d4a2e9eb0ce3606eb486020820152606481830152620d89e7196060820152620d89e8608082015260a0810184905260c08101839052600060e08201819052610100820181905230610120830152426101408301525491517f8831645600000000000000000000000000000000000000000000000000000000815290916001600160a01b031690638831645690610359908490600401610f51565b608060405180830381600087803b15801561037357600080fd5b505af1158015610387573d6000803e3d6000fd5b505050506040513d601f19601f820116820180604052508101906103ab9190610d08565b929950909750955093506103bf338861061d565b8285101561041857600080546103f491736b175474e89094c44da98b954eedeac495271d0f916001600160a01b0316906108a3565b848303610416736b175474e89094c44da98b954eedeac495271d0f3383610a25565b505b81841015610471576000805461044d9173a0b86991c6218b36c1d19d4a2e9eb0ce3606eb48916001600160a01b0316906108a3565b83820361046f73a0b86991c6218b36c1d19d4a2e9eb0ce3606eb483383610a25565b505b50505090919293565b60008181526001602052604081205481906001600160a01b031633146104bb5760405162461bcd60e51b81526004016104b290610ed7565b60405180910390fd5b600083815260016020818152604080842090920154825160a0810184528781526001600160801b0390911691810182905280830184905260608101849052426080820152925491517f0c49ccbe0000000000000000000000000000000000000000000000000000000081529092839290916001600160a01b0390911690630c49ccbe9061054c908490600401610f0e565b6040805180830381600087803b15801561056557600080fd5b505af1158015610579573d6000803e3d6000fd5b505050506040513d601f19601f8201168201806040525081019061059d9190610d43565b90955093506105ad868686610ba0565b505050915091565b73a0b86991c6218b36c1d19d4a2e9eb0ce3606eb4881565b600160208190526000918252604090912080549181015460028201546003909201546001600160a01b03938416936001600160801b03909216928216911684565b6000546001600160a01b031681565b600080546040517f99fbab88000000000000000000000000000000000000000000000000000000008152829182916001600160a01b03909116906399fbab889061066b90879060040161100f565b6101806040518083038186803b15801561068457600080fd5b505afa158015610698573d6000803e3d6000fd5b505050506040513d601f19601f820116820180604052508101906106bc9190610d66565b5050505097505050509450945050506040518060800160405280866001600160a01b03168152602001826001600160801b03168152602001846001600160a01b03168152602001836001600160a01b03168152506001600086815260200190815260200160002060008201518160000160006101000a8154816001600160a01b0302191690836001600160a01b0316021790555060208201518160010160006101000a8154816001600160801b0302191690836001600160801b0316021790555060408201518160020160006101000a8154816001600160a01b0302191690836001600160a01b0316021790555060608201518160030160006101000a8154816001600160a01b0302191690836001600160a01b031602179055509050505050505050565b6108a0816040516024018080602001828103825283818151815260200191508051906020019080838360005b8381101561082557818101518382015260200161080d565b50505050905090810190601f1680156108525780820380516001836020036101000a031916815260200191505b5060408051601f198184030181529190526020810180516001600160e01b03167f41304fac000000000000000000000000000000000000000000000000000000001790529250610be9915050565b50565b604080516001600160a01b038481166024830152604480830185905283518084039091018152606490920183526020820180516001600160e01b03167f095ea7b3000000000000000000000000000000000000000000000000000000001781529251825160009485949389169392918291908083835b602083106109385780518252601f199092019160209182019101610919565b6001836020036101000a0380198251168184511680821785525050505050509050019150506000604051808303816000865af19150503d806000811461099a576040519150601f19603f3d011682016040523d82523d6000602084013e61099f565b606091505b50915091508180156109cd5750805115806109cd57508080602001905160208110156109ca57600080fd5b50515b610a1e576040805162461bcd60e51b815260206004820152600260248201527f5341000000000000000000000000000000000000000000000000000000000000604482015290519081900360640190fd5b5050505050565b604080516001600160a01b038481166024830152604480830185905283518084039091018152606490920183526020820180516001600160e01b03167fa9059cbb000000000000000000000000000000000000000000000000000000001781529251825160009485949389169392918291908083835b60208310610aba5780518252601f199092019160209182019101610a9b565b6001836020036101000a0380198251168184511680821785525050505050509050019150506000604051808303816000865af19150503d8060008114610b1c576040519150601f19603f3d011682016040523d82523d6000602084013e610b21565b606091505b5091509150818015610b4f575080511580610b4f5750808060200190516020811015610b4c57600080fd5b50515b610a1e576040805162461bcd60e51b815260206004820152600260248201527f5354000000000000000000000000000000000000000000000000000000000000604482015290519081900360640190fd5b6000838152600160205260409020805460028201546003909201546001600160a01b039182169282169116610bd6828487610a25565b610be1818486610a25565b505050505050565b80516a636f6e736f6c652e6c6f67602083016000808483855afa5050505050565b8051610c158161104a565b919050565b8051600281900b8114610c1557600080fd5b80516001600160801b0381168114610c1557600080fd5b805162ffffff81168114610c1557600080fd5b600080600080600060808688031215610c6d578081fd5b8535610c788161104a565b94506020860135610c888161104a565b935060408601359250606086013567ffffffffffffffff80821115610cab578283fd5b818801915088601f830112610cbe578283fd5b813581811115610ccc578384fd5b896020828501011115610cdd578384fd5b9699959850939650602001949392505050565b600060208284031215610d01578081fd5b5035919050565b60008060008060808587031215610d1d578384fd5b84519350610d2d60208601610c2c565b6040860151606090960151949790965092505050565b60008060408385031215610d55578182fd5b505080516020909101519092909150565b6000806000806000806000806000806000806101808d8f031215610d88578687fd5b8c516bffffffffffffffffffffffff81168114610da3578788fd5b9b50610db160208e01610c0a565b9a50610dbf60408e01610c0a565b9950610dcd60608e01610c0a565b9850610ddb60808e01610c43565b9750610de960a08e01610c1a565b9650610df760c08e01610c1a565b9550610e0560e08e01610c2c565b94506101008d015193506101208d01519250610e246101408e01610c2c565b9150610e336101608e01610c2c565b90509295989b509295989b509295989b565b6001600160a01b03169052565b60020b9052565b62ffffff169052565b6001600160a01b0391909116815260200190565b6001600160a01b0394851681526001600160801b039390931660208401529083166040830152909116606082015260800190565b7fffffffff0000000000000000000000000000000000000000000000000000000091909116815260200190565b6020808252600d908201527f4e6f7420746865206f776e657200000000000000000000000000000000000000604082015260600190565b600060a082019050825182526001600160801b03602084015116602083015260408301516040830152606083015160608301526080830151608083015292915050565b600061016082019050610f65828451610e45565b6020830151610f776020840182610e45565b506040830151610f8a6040840182610e59565b506060830151610f9d6060840182610e52565b506080830151610fb06080840182610e52565b5060a083015160a083015260c083015160c083015260e083015160e083015261010080840151818401525061012080840151610fee82850182610e45565b505061014092830151919092015290565b62ffffff91909116815260200190565b90815260200190565b9384526001600160801b039290921660208401526040830152606082015260800190565b918252602082015260400190565b6001600160a01b03811681146108a057600080fdfea2646970667358221220cb124a714515eca8fca23c17d69818bd74d88b5e74d4aa410abc4196f13678f264736f6c63430007060033",
  "linkReferences": {},
  "deployedLinkReferences": {}
}